{
  "_format": "hh-sol-artifact-1",
  "contractName": "RoboPunksNFT",
  "sourceName": "contracts/RoboPunksNFT.sol",
  "abi": [
    {
      "inputs": [],
      "stateMutability": "payable",
      "type": "constructor"
    },
    {
      "anonymous": false,
      "inputs": [
        {
          "indexed": true,
          "internalType": "address",
          "name": "owner",
          "type": "address"
        },
        {
          "indexed": true,
          "internalType": "address",
          "name": "approved",
          "type": "address"
        },
        {
          "indexed": true,
          "internalType": "uint256",
          "name": "tokenId",
          "type": "uint256"
        }
      ],
      "name": "Approval",
      "type": "event"
    },
    {
      "anonymous": false,
      "inputs": [
        {
          "indexed": true,
          "internalType": "address",
          "name": "owner",
          "type": "address"
        },
        {
          "indexed": true,
          "internalType": "address",
          "name": "operator",
          "type": "address"
        },
        {
          "indexed": false,
          "internalType": "bool",
          "name": "approved",
          "type": "bool"
        }
      ],
      "name": "ApprovalForAll",
      "type": "event"
    },
    {
      "anonymous": false,
      "inputs": [
        {
          "indexed": true,
          "internalType": "address",
          "name": "previousOwner",
          "type": "address"
        },
        {
          "indexed": true,
          "internalType": "address",
          "name": "newOwner",
          "type": "address"
        }
      ],
      "name": "OwnershipTransferred",
      "type": "event"
    },
    {
      "anonymous": false,
      "inputs": [
        {
          "indexed": true,
          "internalType": "address",
          "name": "from",
          "type": "address"
        },
        {
          "indexed": true,
          "internalType": "address",
          "name": "to",
          "type": "address"
        },
        {
          "indexed": true,
          "internalType": "uint256",
          "name": "tokenId",
          "type": "uint256"
        }
      ],
      "name": "Transfer",
      "type": "event"
    },
    {
      "inputs": [
        {
          "internalType": "address",
          "name": "to",
          "type": "address"
        },
        {
          "internalType": "uint256",
          "name": "tokenId",
          "type": "uint256"
        }
      ],
      "name": "approve",
      "outputs": [],
      "stateMutability": "nonpayable",
      "type": "function"
    },
    {
      "inputs": [
        {
          "internalType": "address",
          "name": "owner",
          "type": "address"
        }
      ],
      "name": "balanceOf",
      "outputs": [
        {
          "internalType": "uint256",
          "name": "",
          "type": "uint256"
        }
      ],
      "stateMutability": "view",
      "type": "function"
    },
    {
      "inputs": [
        {
          "internalType": "uint256",
          "name": "tokenId",
          "type": "uint256"
        }
      ],
      "name": "getApproved",
      "outputs": [
        {
          "internalType": "address",
          "name": "",
          "type": "address"
        }
      ],
      "stateMutability": "view",
      "type": "function"
    },
    {
      "inputs": [
        {
          "internalType": "address",
          "name": "owner",
          "type": "address"
        },
        {
          "internalType": "address",
          "name": "operator",
          "type": "address"
        }
      ],
      "name": "isApprovedForAll",
      "outputs": [
        {
          "internalType": "bool",
          "name": "",
          "type": "bool"
        }
      ],
      "stateMutability": "view",
      "type": "function"
    },
    {
      "inputs": [],
      "name": "isPublicMintEnable",
      "outputs": [
        {
          "internalType": "bool",
          "name": "",
          "type": "bool"
        }
      ],
      "stateMutability": "view",
      "type": "function"
    },
    {
      "inputs": [],
      "name": "maxPerWallet",
      "outputs": [
        {
          "internalType": "uint256",
          "name": "",
          "type": "uint256"
        }
      ],
      "stateMutability": "view",
      "type": "function"
    },
    {
      "inputs": [],
      "name": "maxSupply",
      "outputs": [
        {
          "internalType": "uint256",
          "name": "",
          "type": "uint256"
        }
      ],
      "stateMutability": "view",
      "type": "function"
    },
    {
      "inputs": [
        {
          "internalType": "uint256",
          "name": "quantity_",
          "type": "uint256"
        }
      ],
      "name": "mint",
      "outputs": [],
      "stateMutability": "payable",
      "type": "function"
    },
    {
      "inputs": [],
      "name": "mintPrice",
      "outputs": [
        {
          "internalType": "uint256",
          "name": "",
          "type": "uint256"
        }
      ],
      "stateMutability": "view",
      "type": "function"
    },
    {
      "inputs": [],
      "name": "name",
      "outputs": [
        {
          "internalType": "string",
          "name": "",
          "type": "string"
        }
      ],
      "stateMutability": "view",
      "type": "function"
    },
    {
      "inputs": [],
      "name": "owner",
      "outputs": [
        {
          "internalType": "address",
          "name": "",
          "type": "address"
        }
      ],
      "stateMutability": "view",
      "type": "function"
    },
    {
      "inputs": [
        {
          "internalType": "uint256",
          "name": "tokenId",
          "type": "uint256"
        }
      ],
      "name": "ownerOf",
      "outputs": [
        {
          "internalType": "address",
          "name": "",
          "type": "address"
        }
      ],
      "stateMutability": "view",
      "type": "function"
    },
    {
      "inputs": [],
      "name": "renounceOwnership",
      "outputs": [],
      "stateMutability": "nonpayable",
      "type": "function"
    },
    {
      "inputs": [
        {
          "internalType": "address",
          "name": "from",
          "type": "address"
        },
        {
          "internalType": "address",
          "name": "to",
          "type": "address"
        },
        {
          "internalType": "uint256",
          "name": "tokenId",
          "type": "uint256"
        }
      ],
      "name": "safeTransferFrom",
      "outputs": [],
      "stateMutability": "nonpayable",
      "type": "function"
    },
    {
      "inputs": [
        {
          "internalType": "address",
          "name": "from",
          "type": "address"
        },
        {
          "internalType": "address",
          "name": "to",
          "type": "address"
        },
        {
          "internalType": "uint256",
          "name": "tokenId",
          "type": "uint256"
        },
        {
          "internalType": "bytes",
          "name": "_data",
          "type": "bytes"
        }
      ],
      "name": "safeTransferFrom",
      "outputs": [],
      "stateMutability": "nonpayable",
      "type": "function"
    },
    {
      "inputs": [
        {
          "internalType": "address",
          "name": "operator",
          "type": "address"
        },
        {
          "internalType": "bool",
          "name": "approved",
          "type": "bool"
        }
      ],
      "name": "setApprovalForAll",
      "outputs": [],
      "stateMutability": "nonpayable",
      "type": "function"
    },
    {
      "inputs": [
        {
          "internalType": "string",
          "name": "baseTokenUri_",
          "type": "string"
        }
      ],
      "name": "setBaseTokenUri",
      "outputs": [],
      "stateMutability": "nonpayable",
      "type": "function"
    },
    {
      "inputs": [
        {
          "internalType": "bool",
          "name": "isPublicMintEnable_",
          "type": "bool"
        }
      ],
      "name": "setIsPublicMintEnable",
      "outputs": [],
      "stateMutability": "nonpayable",
      "type": "function"
    },
    {
      "inputs": [
        {
          "internalType": "bytes4",
          "name": "interfaceId",
          "type": "bytes4"
        }
      ],
      "name": "supportsInterface",
      "outputs": [
        {
          "internalType": "bool",
          "name": "",
          "type": "bool"
        }
      ],
      "stateMutability": "view",
      "type": "function"
    },
    {
      "inputs": [],
      "name": "symbol",
      "outputs": [
        {
          "internalType": "string",
          "name": "",
          "type": "string"
        }
      ],
      "stateMutability": "view",
      "type": "function"
    },
    {
      "inputs": [
        {
          "internalType": "uint256",
          "name": "tokenId_",
          "type": "uint256"
        }
      ],
      "name": "tokenURI",
      "outputs": [
        {
          "internalType": "string",
          "name": "",
          "type": "string"
        }
      ],
      "stateMutability": "view",
      "type": "function"
    },
    {
      "inputs": [],
      "name": "totalSupply",
      "outputs": [
        {
          "internalType": "uint256",
          "name": "",
          "type": "uint256"
        }
      ],
      "stateMutability": "view",
      "type": "function"
    },
    {
      "inputs": [
        {
          "internalType": "address",
          "name": "from",
          "type": "address"
        },
        {
          "internalType": "address",
          "name": "to",
          "type": "address"
        },
        {
          "internalType": "uint256",
          "name": "tokenId",
          "type": "uint256"
        }
      ],
      "name": "transferFrom",
      "outputs": [],
      "stateMutability": "nonpayable",
      "type": "function"
    },
    {
      "inputs": [
        {
          "internalType": "address",
          "name": "newOwner",
          "type": "address"
        }
      ],
      "name": "transferOwnership",
      "outputs": [],
      "stateMutability": "nonpayable",
      "type": "function"
    },
    {
      "inputs": [
        {
          "internalType": "address",
          "name": "",
          "type": "address"
        }
      ],
      "name": "walletMints",
      "outputs": [
        {
          "internalType": "uint256",
          "name": "",
          "type": "uint256"
        }
      ],
      "stateMutability": "view",
      "type": "function"
    },
    {
      "inputs": [],
      "name": "withdraw",
      "outputs": [],
      "stateMutability": "nonpayable",
      "type": "function"
    },
    {
      "inputs": [],
      "name": "withdrawWallet",
      "outputs": [
        {
          "internalType": "address",
          "name": "",
          "type": "address"
        }
      ],
      "stateMutability": "view",
      "type": "function"
    }
  ],
  "bytecode": "0x60806040526040518060400160405280600981526020017f526f626f50756e6b7300000000000000000000000000000000000000000000008152506040518060400160405280600281526020017f525000000000000000000000000000000000000000000000000000000000000081525081600090805190602001906200008892919062000214565b508060019080519060200190620000a192919062000214565b505050620000c4620000b86200014660201b60201c565b6200014e60201b60201c565b66470de4df82000060078190555060006008819055506103e86009819055506003600a81905550730856d6bbc41d903efe2eefec303fb2b140dcc15e600d60006101000a81548173ffffffffffffffffffffffffffffffffffffffff021916908373ffffffffffffffffffffffffffffffffffffffff16021790555062000329565b600033905090565b6000600660009054906101000a900473ffffffffffffffffffffffffffffffffffffffff16905081600660006101000a81548173ffffffffffffffffffffffffffffffffffffffff021916908373ffffffffffffffffffffffffffffffffffffffff1602179055508173ffffffffffffffffffffffffffffffffffffffff168173ffffffffffffffffffffffffffffffffffffffff167f8be0079c531659141344cd1fd0a4f28419497f9722a3daafe3b4186f6b6457e060405160405180910390a35050565b8280546200022290620002f3565b90600052602060002090601f01602090048101928262000246576000855562000292565b82601f106200026157805160ff191683800117855562000292565b8280016001018555821562000292579182015b828111156200029157825182559160200191906001019062000274565b5b509050620002a19190620002a5565b5090565b5b80821115620002c0576000816000905550600101620002a6565b5090565b7f4e487b7100000000000000000000000000000000000000000000000000000000600052602260045260246000fd5b600060028204905060018216806200030c57607f821691505b60208210811415620003235762000322620002c4565b5b50919050565b6137a080620003396000396000f3fe60806040526004361061019c5760003560e01c806385d178f4116100ec578063b88d4fde1161008a578063d5abeb0111610064578063d5abeb0114610593578063e985e9c5146105be578063f0293fd3146105fb578063f2fde38b146106385761019c565b8063b88d4fde14610504578063c45580d41461052d578063c87b56dd146105565761019c565b806395652cfa116100c657806395652cfa1461046b57806395d89b4114610494578063a0712d68146104bf578063a22cb465146104db5761019c565b806385d178f4146103ea57806389f0d401146104155780638da5cb5b146104405761019c565b80633ccfd60b116101595780636352211e116101335780636352211e1461032e5780636817c76c1461036b57806370a0823114610396578063715018a6146103d35761019c565b80633ccfd60b146102c357806342842e0e146102da578063453c2310146103035761019c565b806301ffc9a7146101a157806306fdde03146101de578063081812fc14610209578063095ea7b31461024657806318160ddd1461026f57806323b872dd1461029a575b600080fd5b3480156101ad57600080fd5b506101c860048036038101906101c391906121ca565b610661565b6040516101d59190612212565b60405180910390f35b3480156101ea57600080fd5b506101f3610743565b60405161020091906122c6565b60405180910390f35b34801561021557600080fd5b50610230600480360381019061022b919061231e565b6107d5565b60405161023d919061238c565b60405180910390f35b34801561025257600080fd5b5061026d600480360381019061026891906123d3565b61085a565b005b34801561027b57600080fd5b50610284610972565b6040516102919190612422565b60405180910390f35b3480156102a657600080fd5b506102c160048036038101906102bc919061243d565b610978565b005b3480156102cf57600080fd5b506102d86109d8565b005b3480156102e657600080fd5b5061030160048036038101906102fc919061243d565b610b25565b005b34801561030f57600080fd5b50610318610b45565b6040516103259190612422565b60405180910390f35b34801561033a57600080fd5b506103556004803603810190610350919061231e565b610b4b565b604051610362919061238c565b60405180910390f35b34801561037757600080fd5b50610380610bfd565b60405161038d9190612422565b60405180910390f35b3480156103a257600080fd5b506103bd60048036038101906103b89190612490565b610c03565b6040516103ca9190612422565b60405180910390f35b3480156103df57600080fd5b506103e8610cbb565b005b3480156103f657600080fd5b506103ff610d43565b60405161040c919061238c565b60405180910390f35b34801561042157600080fd5b5061042a610d69565b6040516104379190612212565b60405180910390f35b34801561044c57600080fd5b50610455610d7c565b604051610462919061238c565b60405180910390f35b34801561047757600080fd5b50610492600480360381019061048d9190612522565b610da6565b005b3480156104a057600080fd5b506104a9610e38565b6040516104b691906122c6565b60405180910390f35b6104d960048036038101906104d4919061231e565b610eca565b005b3480156104e757600080fd5b5061050260048036038101906104fd919061259b565b6110a1565b005b34801561051057600080fd5b5061052b6004803603810190610526919061270b565b6110b7565b005b34801561053957600080fd5b50610554600480360381019061054f919061278e565b611119565b005b34801561056257600080fd5b5061057d6004803603810190610578919061231e565b6111b2565b60405161058a91906122c6565b60405180910390f35b34801561059f57600080fd5b506105a861122e565b6040516105b59190612422565b60405180910390f35b3480156105ca57600080fd5b506105e560048036038101906105e091906127bb565b611234565b6040516105f29190612212565b60405180910390f35b34801561060757600080fd5b50610622600480360381019061061d9190612490565b6112c8565b60405161062f9190612422565b60405180910390f35b34801561064457600080fd5b5061065f600480360381019061065a9190612490565b6112e0565b005b60007f80ac58cd000000000000000000000000000000000000000000000000000000007bffffffffffffffffffffffffffffffffffffffffffffffffffffffff1916827bffffffffffffffffffffffffffffffffffffffffffffffffffffffff1916148061072c57507f5b5e139f000000000000000000000000000000000000000000000000000000007bffffffffffffffffffffffffffffffffffffffffffffffffffffffff1916827bffffffffffffffffffffffffffffffffffffffffffffffffffffffff1916145b8061073c575061073b826113d8565b5b9050919050565b6060600080546107529061282a565b80601f016020809104026020016040519081016040528092919081815260200182805461077e9061282a565b80156107cb5780601f106107a0576101008083540402835291602001916107cb565b820191906000526020600020905b8154815290600101906020018083116107ae57829003601f168201915b5050505050905090565b60006107e082611442565b61081f576040517f08c379a0000000000000000000000000000000000000000000000000000000008152600401610816906128ce565b60405180910390fd5b6004600083815260200190815260200160002060009054906101000a900473ffffffffffffffffffffffffffffffffffffffff169050919050565b600061086582610b4b565b90508073ffffffffffffffffffffffffffffffffffffffff168373ffffffffffffffffffffffffffffffffffffffff1614156108d6576040517f08c379a00000000000000000000000000000000000000000000000000000000081526004016108cd90612960565b60405180910390fd5b8073ffffffffffffffffffffffffffffffffffffffff166108f56114ae565b73ffffffffffffffffffffffffffffffffffffffff16148061092457506109238161091e6114ae565b611234565b5b610963576040517f08c379a000000000000000000000000000000000000000000000000000000000815260040161095a906129f2565b60405180910390fd5b61096d83836114b6565b505050565b60085481565b6109896109836114ae565b8261156f565b6109c8576040517f08c379a00000000000000000000000000000000000000000000000000000000081526004016109bf90612a84565b60405180910390fd5b6109d383838361164d565b505050565b6109e06114ae565b73ffffffffffffffffffffffffffffffffffffffff166109fe610d7c565b73ffffffffffffffffffffffffffffffffffffffff1614610a54576040517f08c379a0000000000000000000000000000000000000000000000000000000008152600401610a4b90612af0565b60405180910390fd5b6000600d60009054906101000a900473ffffffffffffffffffffffffffffffffffffffff1673ffffffffffffffffffffffffffffffffffffffff1647604051610a9c90612b41565b60006040518083038185875af1925050503d8060008114610ad9576040519150601f19603f3d011682016040523d82523d6000602084013e610ade565b606091505b5050905080610b22576040517f08c379a0000000000000000000000000000000000000000000000000000000008152600401610b1990612ba2565b60405180910390fd5b50565b610b40838383604051806020016040528060008152506110b7565b505050565b600a5481565b6000806002600084815260200190815260200160002060009054906101000a900473ffffffffffffffffffffffffffffffffffffffff169050600073ffffffffffffffffffffffffffffffffffffffff168173ffffffffffffffffffffffffffffffffffffffff161415610bf4576040517f08c379a0000000000000000000000000000000000000000000000000000000008152600401610beb90612c34565b60405180910390fd5b80915050919050565b60075481565b60008073ffffffffffffffffffffffffffffffffffffffff168273ffffffffffffffffffffffffffffffffffffffff161415610c74576040517f08c379a0000000000000000000000000000000000000000000000000000000008152600401610c6b90612cc6565b60405180910390fd5b600360008373ffffffffffffffffffffffffffffffffffffffff1673ffffffffffffffffffffffffffffffffffffffff168152602001908152602001600020549050919050565b610cc36114ae565b73ffffffffffffffffffffffffffffffffffffffff16610ce1610d7c565b73ffffffffffffffffffffffffffffffffffffffff1614610d37576040517f08c379a0000000000000000000000000000000000000000000000000000000008152600401610d2e90612af0565b60405180910390fd5b610d4160006118b4565b565b600d60009054906101000a900473ffffffffffffffffffffffffffffffffffffffff1681565b600b60009054906101000a900460ff1681565b6000600660009054906101000a900473ffffffffffffffffffffffffffffffffffffffff16905090565b610dae6114ae565b73ffffffffffffffffffffffffffffffffffffffff16610dcc610d7c565b73ffffffffffffffffffffffffffffffffffffffff1614610e22576040517f08c379a0000000000000000000000000000000000000000000000000000000008152600401610e1990612af0565b60405180910390fd5b8181600c9190610e339291906120bb565b505050565b606060018054610e479061282a565b80601f0160208091040260200160405190810160405280929190818152602001828054610e739061282a565b8015610ec05780601f10610e9557610100808354040283529160200191610ec0565b820191906000526020600020905b815481529060010190602001808311610ea357829003601f168201915b5050505050905090565b600b60009054906101000a900460ff16610f19576040517f08c379a0000000000000000000000000000000000000000000000000000000008152600401610f1090612d32565b60405180910390fd5b60075481610f279190612d81565b3414610f68576040517f08c379a0000000000000000000000000000000000000000000000000000000008152600401610f5f90612e27565b60405180910390fd5b60095481600854610f799190612e47565b1115610fba576040517f08c379a0000000000000000000000000000000000000000000000000000000008152600401610fb190612ee9565b60405180910390fd5b600a5481600e60003373ffffffffffffffffffffffffffffffffffffffff1673ffffffffffffffffffffffffffffffffffffffff168152602001908152602001600020546110089190612e47565b1115611049576040517f08c379a000000000000000000000000000000000000000000000000000000000815260040161104090612f55565b60405180910390fd5b60005b8181101561109d57600060016008546110659190612e47565b90506008600081548092919061107a90612f75565b9190505550611089338261197a565b50808061109590612f75565b91505061104c565b5050565b6110b36110ac6114ae565b8383611998565b5050565b6110c86110c26114ae565b8361156f565b611107576040517f08c379a00000000000000000000000000000000000000000000000000000000081526004016110fe90612a84565b60405180910390fd5b61111384848484611b05565b50505050565b6111216114ae565b73ffffffffffffffffffffffffffffffffffffffff1661113f610d7c565b73ffffffffffffffffffffffffffffffffffffffff1614611195576040517f08c379a000000000000000000000000000000000000000000000000000000000815260040161118c90612af0565b60405180910390fd5b80600b60006101000a81548160ff02191690831515021790555050565b60606111bd82611442565b6111fc576040517f08c379a00000000000000000000000000000000000000000000000000000000081526004016111f39061300a565b60405180910390fd5b600c61120783611b61565b604051602001611218929190613146565b6040516020818303038152906040529050919050565b60095481565b6000600560008473ffffffffffffffffffffffffffffffffffffffff1673ffffffffffffffffffffffffffffffffffffffff16815260200190815260200160002060008373ffffffffffffffffffffffffffffffffffffffff1673ffffffffffffffffffffffffffffffffffffffff16815260200190815260200160002060009054906101000a900460ff16905092915050565b600e6020528060005260406000206000915090505481565b6112e86114ae565b73ffffffffffffffffffffffffffffffffffffffff16611306610d7c565b73ffffffffffffffffffffffffffffffffffffffff161461135c576040517f08c379a000000000000000000000000000000000000000000000000000000000815260040161135390612af0565b60405180910390fd5b600073ffffffffffffffffffffffffffffffffffffffff168173ffffffffffffffffffffffffffffffffffffffff1614156113cc576040517f08c379a00000000000000000000000000000000000000000000000000000000081526004016113c3906131e7565b60405180910390fd5b6113d5816118b4565b50565b60007f01ffc9a7000000000000000000000000000000000000000000000000000000007bffffffffffffffffffffffffffffffffffffffffffffffffffffffff1916827bffffffffffffffffffffffffffffffffffffffffffffffffffffffff1916149050919050565b60008073ffffffffffffffffffffffffffffffffffffffff166002600084815260200190815260200160002060009054906101000a900473ffffffffffffffffffffffffffffffffffffffff1673ffffffffffffffffffffffffffffffffffffffff1614159050919050565b600033905090565b816004600083815260200190815260200160002060006101000a81548173ffffffffffffffffffffffffffffffffffffffff021916908373ffffffffffffffffffffffffffffffffffffffff160217905550808273ffffffffffffffffffffffffffffffffffffffff1661152983610b4b565b73ffffffffffffffffffffffffffffffffffffffff167f8c5be1e5ebec7d5bd14f71427d1e84f3dd0314c0f7b2291e5b200ac8c7c3b92560405160405180910390a45050565b600061157a82611442565b6115b9576040517f08c379a00000000000000000000000000000000000000000000000000000000081526004016115b090613279565b60405180910390fd5b60006115c483610b4b565b90508073ffffffffffffffffffffffffffffffffffffffff168473ffffffffffffffffffffffffffffffffffffffff16148061160657506116058185611234565b5b8061164457508373ffffffffffffffffffffffffffffffffffffffff1661162c846107d5565b73ffffffffffffffffffffffffffffffffffffffff16145b91505092915050565b8273ffffffffffffffffffffffffffffffffffffffff1661166d82610b4b565b73ffffffffffffffffffffffffffffffffffffffff16146116c3576040517f08c379a00000000000000000000000000000000000000000000000000000000081526004016116ba9061330b565b60405180910390fd5b600073ffffffffffffffffffffffffffffffffffffffff168273ffffffffffffffffffffffffffffffffffffffff161415611733576040517f08c379a000000000000000000000000000000000000000000000000000000000815260040161172a9061339d565b60405180910390fd5b61173e838383611cc2565b6117496000826114b6565b6001600360008573ffffffffffffffffffffffffffffffffffffffff1673ffffffffffffffffffffffffffffffffffffffff168152602001908152602001600020600082825461179991906133bd565b925050819055506001600360008473ffffffffffffffffffffffffffffffffffffffff1673ffffffffffffffffffffffffffffffffffffffff16815260200190815260200160002060008282546117f09190612e47565b92505081905550816002600083815260200190815260200160002060006101000a81548173ffffffffffffffffffffffffffffffffffffffff021916908373ffffffffffffffffffffffffffffffffffffffff160217905550808273ffffffffffffffffffffffffffffffffffffffff168473ffffffffffffffffffffffffffffffffffffffff167fddf252ad1be2c89b69c2b068fc378daa952ba7f163c4a11628f55a4df523b3ef60405160405180910390a46118af838383611cc7565b505050565b6000600660009054906101000a900473ffffffffffffffffffffffffffffffffffffffff16905081600660006101000a81548173ffffffffffffffffffffffffffffffffffffffff021916908373ffffffffffffffffffffffffffffffffffffffff1602179055508173ffffffffffffffffffffffffffffffffffffffff168173ffffffffffffffffffffffffffffffffffffffff167f8be0079c531659141344cd1fd0a4f28419497f9722a3daafe3b4186f6b6457e060405160405180910390a35050565b611994828260405180602001604052806000815250611ccc565b5050565b8173ffffffffffffffffffffffffffffffffffffffff168373ffffffffffffffffffffffffffffffffffffffff161415611a07576040517f08c379a00000000000000000000000000000000000000000000000000000000081526004016119fe9061343d565b60405180910390fd5b80600560008573ffffffffffffffffffffffffffffffffffffffff1673ffffffffffffffffffffffffffffffffffffffff16815260200190815260200160002060008473ffffffffffffffffffffffffffffffffffffffff1673ffffffffffffffffffffffffffffffffffffffff16815260200190815260200160002060006101000a81548160ff0219169083151502179055508173ffffffffffffffffffffffffffffffffffffffff168373ffffffffffffffffffffffffffffffffffffffff167f17307eab39ab6107e8899845ad3d59bd9653f200f220920489ca2b5937696c3183604051611af89190612212565b60405180910390a3505050565b611b1084848461164d565b611b1c84848484611d27565b611b5b576040517f08c379a0000000000000000000000000000000000000000000000000000000008152600401611b52906134cf565b60405180910390fd5b50505050565b60606000821415611ba9576040518060400160405280600181526020017f30000000000000000000000000000000000000000000000000000000000000008152509050611cbd565b600082905060005b60008214611bdb578080611bc490612f75565b915050600a82611bd4919061351e565b9150611bb1565b60008167ffffffffffffffff811115611bf757611bf66125e0565b5b6040519080825280601f01601f191660200182016040528015611c295781602001600182028036833780820191505090505b5090505b60008514611cb657600182611c4291906133bd565b9150600a85611c51919061354f565b6030611c5d9190612e47565b60f81b818381518110611c7357611c72613580565b5b60200101907effffffffffffffffffffffffffffffffffffffffffffffffffffffffffffff1916908160001a905350600a85611caf919061351e565b9450611c2d565b8093505050505b919050565b505050565b505050565b611cd68383611ebe565b611ce36000848484611d27565b611d22576040517f08c379a0000000000000000000000000000000000000000000000000000000008152600401611d19906134cf565b60405180910390fd5b505050565b6000611d488473ffffffffffffffffffffffffffffffffffffffff16612098565b15611eb1578373ffffffffffffffffffffffffffffffffffffffff1663150b7a02611d716114ae565b8786866040518563ffffffff1660e01b8152600401611d939493929190613604565b602060405180830381600087803b158015611dad57600080fd5b505af1925050508015611dde57506040513d601f19601f82011682018060405250810190611ddb9190613665565b60015b611e61573d8060008114611e0e576040519150601f19603f3d011682016040523d82523d6000602084013e611e13565b606091505b50600081511415611e59576040517f08c379a0000000000000000000000000000000000000000000000000000000008152600401611e50906134cf565b60405180910390fd5b805181602001fd5b63150b7a0260e01b7bffffffffffffffffffffffffffffffffffffffffffffffffffffffff1916817bffffffffffffffffffffffffffffffffffffffffffffffffffffffff191614915050611eb6565b600190505b949350505050565b600073ffffffffffffffffffffffffffffffffffffffff168273ffffffffffffffffffffffffffffffffffffffff161415611f2e576040517f08c379a0000000000000000000000000000000000000000000000000000000008152600401611f25906136de565b60405180910390fd5b611f3781611442565b15611f77576040517f08c379a0000000000000000000000000000000000000000000000000000000008152600401611f6e9061374a565b60405180910390fd5b611f8360008383611cc2565b6001600360008473ffffffffffffffffffffffffffffffffffffffff1673ffffffffffffffffffffffffffffffffffffffff1681526020019081526020016000206000828254611fd39190612e47565b92505081905550816002600083815260200190815260200160002060006101000a81548173ffffffffffffffffffffffffffffffffffffffff021916908373ffffffffffffffffffffffffffffffffffffffff160217905550808273ffffffffffffffffffffffffffffffffffffffff16600073ffffffffffffffffffffffffffffffffffffffff167fddf252ad1be2c89b69c2b068fc378daa952ba7f163c4a11628f55a4df523b3ef60405160405180910390a461209460008383611cc7565b5050565b6000808273ffffffffffffffffffffffffffffffffffffffff163b119050919050565b8280546120c79061282a565b90600052602060002090601f0160209004810192826120e95760008555612130565b82601f1061210257803560ff1916838001178555612130565b82800160010185558215612130579182015b8281111561212f578235825591602001919060010190612114565b5b50905061213d9190612141565b5090565b5b8082111561215a576000816000905550600101612142565b5090565b6000604051905090565b600080fd5b600080fd5b60007fffffffff0000000000000000000000000000000000000000000000000000000082169050919050565b6121a781612172565b81146121b257600080fd5b50565b6000813590506121c48161219e565b92915050565b6000602082840312156121e0576121df612168565b5b60006121ee848285016121b5565b91505092915050565b60008115159050919050565b61220c816121f7565b82525050565b60006020820190506122276000830184612203565b92915050565b600081519050919050565b600082825260208201905092915050565b60005b8381101561226757808201518184015260208101905061224c565b83811115612276576000848401525b50505050565b6000601f19601f8301169050919050565b60006122988261222d565b6122a28185612238565b93506122b2818560208601612249565b6122bb8161227c565b840191505092915050565b600060208201905081810360008301526122e0818461228d565b905092915050565b6000819050919050565b6122fb816122e8565b811461230657600080fd5b50565b600081359050612318816122f2565b92915050565b60006020828403121561233457612333612168565b5b600061234284828501612309565b91505092915050565b600073ffffffffffffffffffffffffffffffffffffffff82169050919050565b60006123768261234b565b9050919050565b6123868161236b565b82525050565b60006020820190506123a1600083018461237d565b92915050565b6123b08161236b565b81146123bb57600080fd5b50565b6000813590506123cd816123a7565b92915050565b600080604083850312156123ea576123e9612168565b5b60006123f8858286016123be565b925050602061240985828601612309565b9150509250929050565b61241c816122e8565b82525050565b60006020820190506124376000830184612413565b92915050565b60008060006060848603121561245657612455612168565b5b6000612464868287016123be565b9350506020612475868287016123be565b925050604061248686828701612309565b9150509250925092565b6000602082840312156124a6576124a5612168565b5b60006124b4848285016123be565b91505092915050565b600080fd5b600080fd5b600080fd5b60008083601f8401126124e2576124e16124bd565b5b8235905067ffffffffffffffff8111156124ff576124fe6124c2565b5b60208301915083600182028301111561251b5761251a6124c7565b5b9250929050565b6000806020838503121561253957612538612168565b5b600083013567ffffffffffffffff8111156125575761255661216d565b5b612563858286016124cc565b92509250509250929050565b612578816121f7565b811461258357600080fd5b50565b6000813590506125958161256f565b92915050565b600080604083850312156125b2576125b1612168565b5b60006125c0858286016123be565b92505060206125d185828601612586565b9150509250929050565b600080fd5b7f4e487b7100000000000000000000000000000000000000000000000000000000600052604160045260246000fd5b6126188261227c565b810181811067ffffffffffffffff82111715612637576126366125e0565b5b80604052505050565b600061264a61215e565b9050612656828261260f565b919050565b600067ffffffffffffffff821115612676576126756125e0565b5b61267f8261227c565b9050602081019050919050565b82818337600083830152505050565b60006126ae6126a98461265b565b612640565b9050828152602081018484840111156126ca576126c96125db565b5b6126d584828561268c565b509392505050565b600082601f8301126126f2576126f16124bd565b5b813561270284826020860161269b565b91505092915050565b6000806000806080858703121561272557612724612168565b5b6000612733878288016123be565b9450506020612744878288016123be565b935050604061275587828801612309565b925050606085013567ffffffffffffffff8111156127765761277561216d565b5b612782878288016126dd565b91505092959194509250565b6000602082840312156127a4576127a3612168565b5b60006127b284828501612586565b91505092915050565b600080604083850312156127d2576127d1612168565b5b60006127e0858286016123be565b92505060206127f1858286016123be565b9150509250929050565b7f4e487b7100000000000000000000000000000000000000000000000000000000600052602260045260246000fd5b6000600282049050600182168061284257607f821691505b60208210811415612856576128556127fb565b5b50919050565b7f4552433732313a20617070726f76656420717565727920666f72206e6f6e657860008201527f697374656e7420746f6b656e0000000000000000000000000000000000000000602082015250565b60006128b8602c83612238565b91506128c38261285c565b604082019050919050565b600060208201905081810360008301526128e7816128ab565b9050919050565b7f4552433732313a20617070726f76616c20746f2063757272656e74206f776e6560008201527f7200000000000000000000000000000000000000000000000000000000000000602082015250565b600061294a602183612238565b9150612955826128ee565b604082019050919050565b600060208201905081810360008301526129798161293d565b9050919050565b7f4552433732313a20617070726f76652063616c6c6572206973206e6f74206f7760008201527f6e6572206e6f7220617070726f76656420666f7220616c6c0000000000000000602082015250565b60006129dc603883612238565b91506129e782612980565b604082019050919050565b60006020820190508181036000830152612a0b816129cf565b9050919050565b7f4552433732313a207472616e736665722063616c6c6572206973206e6f74206f60008201527f776e6572206e6f7220617070726f766564000000000000000000000000000000602082015250565b6000612a6e603183612238565b9150612a7982612a12565b604082019050919050565b60006020820190508181036000830152612a9d81612a61565b9050919050565b7f4f776e61626c653a2063616c6c6572206973206e6f7420746865206f776e6572600082015250565b6000612ada602083612238565b9150612ae582612aa4565b602082019050919050565b60006020820190508181036000830152612b0981612acd565b9050919050565b600081905092915050565b50565b6000612b2b600083612b10565b9150612b3682612b1b565b600082019050919050565b6000612b4c82612b1e565b9150819050919050565b7f7769746864726177206661696c65640000000000000000000000000000000000600082015250565b6000612b8c600f83612238565b9150612b9782612b56565b602082019050919050565b60006020820190508181036000830152612bbb81612b7f565b9050919050565b7f4552433732313a206f776e657220717565727920666f72206e6f6e657869737460008201527f656e7420746f6b656e0000000000000000000000000000000000000000000000602082015250565b6000612c1e602983612238565b9150612c2982612bc2565b604082019050919050565b60006020820190508181036000830152612c4d81612c11565b9050919050565b7f4552433732313a2062616c616e636520717565727920666f7220746865207a6560008201527f726f206164647265737300000000000000000000000000000000000000000000602082015250565b6000612cb0602a83612238565b9150612cbb82612c54565b604082019050919050565b60006020820190508181036000830152612cdf81612ca3565b9050919050565b7f4d696e74696e67206e6f7420656e61626c652079657400000000000000000000600082015250565b6000612d1c601683612238565b9150612d2782612ce6565b602082019050919050565b60006020820190508181036000830152612d4b81612d0f565b9050919050565b7f4e487b7100000000000000000000000000000000000000000000000000000000600052601160045260246000fd5b6000612d8c826122e8565b9150612d97836122e8565b9250817fffffffffffffffffffffffffffffffffffffffffffffffffffffffffffffffff0483118215151615612dd057612dcf612d52565b5b828202905092915050565b7f496e636f7272656374206d696e742076616c7565000000000000000000000000600082015250565b6000612e11601483612238565b9150612e1c82612ddb565b602082019050919050565b60006020820190508181036000830152612e4081612e04565b9050919050565b6000612e52826122e8565b9150612e5d836122e8565b9250827fffffffffffffffffffffffffffffffffffffffffffffffffffffffffffffffff03821115612e9257612e91612d52565b5b828201905092915050565b7f536f6c64206f7574210000000000000000000000000000000000000000000000600082015250565b6000612ed3600983612238565b9150612ede82612e9d565b602082019050919050565b60006020820190508181036000830152612f0281612ec6565b9050919050565b7f4578636565646564206d617820616d6f756e74207065722077616c6c65740000600082015250565b6000612f3f601e83612238565b9150612f4a82612f09565b602082019050919050565b60006020820190508181036000830152612f6e81612f32565b9050919050565b6000612f80826122e8565b91507fffffffffffffffffffffffffffffffffffffffffffffffffffffffffffffffff821415612fb357612fb2612d52565b5b600182019050919050565b7f546f6b656e20646f6573206e6f74206578697374210000000000000000000000600082015250565b6000612ff4601583612238565b9150612fff82612fbe565b602082019050919050565b6000602082019050818103600083015261302381612fe7565b9050919050565b600081905092915050565b60008190508160005260206000209050919050565b600081546130578161282a565b613061818661302a565b9450600182166000811461307c576001811461308d576130c0565b60ff198316865281860193506130c0565b61309685613035565b60005b838110156130b857815481890152600182019150602081019050613099565b838801955050505b50505092915050565b60006130d48261222d565b6130de818561302a565b93506130ee818560208601612249565b80840191505092915050565b7f2e6a736f6e000000000000000000000000000000000000000000000000000000600082015250565b600061313060058361302a565b915061313b826130fa565b600582019050919050565b6000613152828561304a565b915061315e82846130c9565b915061316982613123565b91508190509392505050565b7f4f776e61626c653a206e6577206f776e657220697320746865207a65726f206160008201527f6464726573730000000000000000000000000000000000000000000000000000602082015250565b60006131d1602683612238565b91506131dc82613175565b604082019050919050565b60006020820190508181036000830152613200816131c4565b9050919050565b7f4552433732313a206f70657261746f7220717565727920666f72206e6f6e657860008201527f697374656e7420746f6b656e0000000000000000000000000000000000000000602082015250565b6000613263602c83612238565b915061326e82613207565b604082019050919050565b6000602082019050818103600083015261329281613256565b9050919050565b7f4552433732313a207472616e736665722066726f6d20696e636f72726563742060008201527f6f776e6572000000000000000000000000000000000000000000000000000000602082015250565b60006132f5602583612238565b915061330082613299565b604082019050919050565b60006020820190508181036000830152613324816132e8565b9050919050565b7f4552433732313a207472616e7366657220746f20746865207a65726f2061646460008201527f7265737300000000000000000000000000000000000000000000000000000000602082015250565b6000613387602483612238565b91506133928261332b565b604082019050919050565b600060208201905081810360008301526133b68161337a565b9050919050565b60006133c8826122e8565b91506133d3836122e8565b9250828210156133e6576133e5612d52565b5b828203905092915050565b7f4552433732313a20617070726f766520746f2063616c6c657200000000000000600082015250565b6000613427601983612238565b9150613432826133f1565b602082019050919050565b600060208201905081810360008301526134568161341a565b9050919050565b7f4552433732313a207472616e7366657220746f206e6f6e20455243373231526560008201527f63656976657220696d706c656d656e7465720000000000000000000000000000602082015250565b60006134b9603283612238565b91506134c48261345d565b604082019050919050565b600060208201905081810360008301526134e8816134ac565b9050919050565b7f4e487b7100000000000000000000000000000000000000000000000000000000600052601260045260246000fd5b6000613529826122e8565b9150613534836122e8565b925082613544576135436134ef565b5b828204905092915050565b600061355a826122e8565b9150613565836122e8565b925082613575576135746134ef565b5b828206905092915050565b7f4e487b7100000000000000000000000000000000000000000000000000000000600052603260045260246000fd5b600081519050919050565b600082825260208201905092915050565b60006135d6826135af565b6135e081856135ba565b93506135f0818560208601612249565b6135f98161227c565b840191505092915050565b6000608082019050613619600083018761237d565b613626602083018661237d565b6136336040830185612413565b818103606083015261364581846135cb565b905095945050505050565b60008151905061365f8161219e565b92915050565b60006020828403121561367b5761367a612168565b5b600061368984828501613650565b91505092915050565b7f4552433732313a206d696e7420746f20746865207a65726f2061646472657373600082015250565b60006136c8602083612238565b91506136d382613692565b602082019050919050565b600060208201905081810360008301526136f7816136bb565b9050919050565b7f4552433732313a20746f6b656e20616c7265616479206d696e74656400000000600082015250565b6000613734601c83612238565b915061373f826136fe565b602082019050919050565b6000602082019050818103600083015261376381613727565b905091905056fea2646970667358221220f58801903835072e6c85a494c349adb2320c581c1aa8565e457fccef1e8c636664736f6c63430008090033",
  "linkReferences": {},
  "deployedLinkReferences": {}
}